:020000040800F2
:100000000000012085100008910E0008970E0008DE
:100010009D0E0008A30E0008A90E000800000000B5
:10002000000000000000000000000000AF0E00080B
:10003000BD0E000800000000CB0E0008D90E00081D
:10004000D5100008D5100008D5100008D5100008FC
:10005000D5100008D5100008D5100008D5100008EC
:10006000D5100008D5100008D5100008D5100008DC
:10007000D5100008D5100008D5100008D5100008CC
:10008000D5100008D5100008D510000800000000A9
:10009000000000000000000000000000D510000873
:1000A000D5100008D5100008D5100008D51000089C
:1000B000D5100008D5100008D5100008D51000088C
:1000C000D5100008D5100008D5100008D51000087C
:1000D000D5100008D5100008D51000080000000059
:1000E000D5100008D5100008D51000080000000049
:1000F000000000000000000000000000D510000813
:1001000000000000D5100008D5100008D510000828
:1001100000000000000000000000000000000000DF
:10012000D5100008D5100008D5100008D51000081B
:10013000D5100008000000000000000000000000D2
:10014000000000000000000000000000D5100008C2
:10015000D5100008D5100008D5100008D5100008EB
:10016000D5100008D51000080000000000000000B5
:10017000000000000000000000000000000000007F
:1001800000000000D5100008000000000000000082
:04019000D51000087E
:1001940010B5054C237833B9044B13B10448AFF3BD
:1001A40000800123237010BD3400002000000000F3
:1001B400EC32000808B5034B1BB103490348AFF305
:1001C400008008BD0000000038000020EC32000868
:1001D40053B94AB9002908BF00281CBF4FF0FF31AA
:1001E4004FF0FF3000F070B9ADF1080C6DE904CEAA
:1001F40000F006F8DDF804E0DDE9022304B07047FE
:100204002DE9F047089E0D4604460F46002B4AD1BF
:100214008A42944665D9B2FA82F343B102FA03FCE6
:10022400C3F120029F4020FA02F217439C404FEA98
:100234001C4E1FFA8CF5B7FBFEF1220C0EFB117756
:1002440042EA074201FB05F090420AD91CEB020284
:1002540001F1FF3780F01C81904240F2198102398C
:100264006244121AA4B2B2FBFEF00EFB102244EA5E
:10027400024400FB05F5A5420AD91CEB040400F175
:10028400FF3280F00781A54240F2048164440238C1
:1002940040EA0140641B00211EB1DC400023C6E992
:1002A4000043BDE8F0878B4208D9002E00F0ED80B2
:1002B4000021C6E900050846BDE8F087B3FA83F1DA
:1002C400002949D1AB4202D3824200F2F880841A59
:1002D40065EB030201201746002EE2D0C6E9004771
:1002E400DFE702B9FFDEB2FA82F3002B40F0908020
:1002F4008A1A4FEA1C471FFA8CFE0121B2FBF7F55C
:1003040007FB1520220C42EA00420EFB05F0904246
:1003140008D91CEB020205F1FF3802D2904200F228
:10032400CB804546121AA4B2B2FBF7F007FB1022A9
:1003340044EA02440EFB00FEA64508D91CEB040463
:1003440000F1FF3202D2A64500F2BB801046A4EBB6
:100354000E0440EA05409FE7C1F120078B4022FAD2
:1003640007FC4CEA030C05FA01F420FA07F3FD40FC
:100374004FEA1C492343B5FBF9F81FFA8CFE09FB2D
:1003840018551C0C44EA054408FB0EF5A54202FA74
:1003940001F200FA01F00BD91CEB040408F1FF3A56
:1003A40080F08880A54240F28580A8F10208644468
:1003B400641B9DB2B4FBF9F309FB134445EA0444FE
:1003C40003FB0EFEA64508D91CEB040403F1FF351C
:1003D4006CD2A6456AD9023B644443EA0843A3FBB2
:1003E4000295A4EB0E04AC42C846AE4656D353D095
:1003F40056B1B0EB080264EB0E0404FA07F7CA40E6
:10040400CC401743C6E9007418460021BDE8F087C4
:10041400C3F1200102FA03FC20FA01F225FA01F1EA
:100424009D402A434FEA1C471FFA8CFEB1FBF7F0AC
:1004340007FB1015110C41EA054100FB0EF58D4236
:1004440004FA03F408D91CEB010100F1FF382FD2A0
:100454008D422DD902386144491B92B2B1FBF7F5A4
:1004640007FB151142EA014205FB0EF1914208D93E
:100474001CEB020205F1FF3816D2914214D9023D59
:100484006244521A45EA004138E73146304608E7EB
:100494003946E6E61046FBE64845A9D2B9EB020820
:1004A40065EB0C0E013BA3E74546EAE72B4694E7D0
:1004B4004046D1E7D0467BE7023D624432E7084636
:1004C4000AE76444023842E7704700BF80B582B04F
:1004D40000AF0023FB710023BB710023BB804FF4EA
:1004E400887200211C4802F0D3FE4FF0FF33012232
:1004F40019491A4802F005FB03461A46BB7913430F
:10050400BB71154B1B78BB801549BA884FF0FF337C
:10051400124802F0F6FA03461A46BB791343BB713C
:10052400BB79002B13D10C4B5B780F2B0DD90A4BE5
:100534005B78172B09D8084B5B78103BDBB21A4663
:10054400084B53F82230984701E00123FB71FB79F3
:1005540018460837BD4680BD50000020B001002079
:10056400510000200000002080B586B000AF786004
:1005740039600023FB7500233B610023FB730023D8
:10058400BB600EE0FB7B124AD35CBB6007F108033F
:10059400012219460F4800F022FF3861FB7B01332A
:1005A400FB73FB7B7A689A42ECD80A4B1B689A6807
:1005B400084B1B6842F001029A603A683B699A4210
:1005C40001D10123FB75FB7D18461837BD4680BD5C
:1005D400500000206001002080B584B000AF0346C5
:1005E400FB71CD233B73FB797B7307F10C03022171
:1005F400184600F031FB00BF1037BD4680BD80B502
:1006040082B000AFAB23BB803B1D0221184600F033
:1006140023FB00BF0837BD4680BD000080B584B011
:1006240000AF4FF4B2737B60124B1B789BB2013363
:10063400FB810023BB60FB89043B0E4A13441B6807
:10064400BB60FB89043BB9681846FFF78DFF03467E
:10065400012B08D10420FFF7BFFF3B1D04211846DE
:1006640000F0FAFA01E0FFF7CAFF00BF1037BD46F9
:1006740080BD00BF5000002080B582B000AF124B97
:100684001B789BB20133FB8000233B60FB88043B57
:100694000D4A13441B683B60FB88043B39681846C9
:1006A400FFF762FF0346012B07D10820FFF794FFF1
:1006B4000821064800F0D0FA01E0FFF7A0FF00BFD0
:1006C4000837BD4680BD00BF500000202000002038
:1006D40080B584B000AF174B1B789BB20133FB810C
:1006E4000023BB600023FB80FB89043B114A1344B5
:1006F4001B68BB60FB89043BB9681846FFF734FFED
:100704000346012B0FD10C4B1B689BB2C3F30A03A6
:100714009BB2FB800220FFF75FFFBB1D022118463E
:1007240000F09AFA01E0FFF76AFF00BF1037BD46F8
:1007340080BD00BF50000020002004E080B584B0DC
:1007440000AF154B1B789BB20133FB810023BB60C8
:100754000023FB71FB89043B0F4A13441B68BB60F5
:10076400FB89043BB9681846FFF7FEFE0346012BDC
:100774000CD10120FFF730FF00F060FA0346FB7153
:10078400FB1D0121184600F067FA01E0FFF737FF6F
:1007940000BF1037BD4680BD5000002080B586B034
:1007A40000AF2A4B1B789BB20133FB8200233B61D1
:1007B4000023FB600023BB600023FB70FB8A043B27
:1007C400224A13441B683B61FB8A043B396918467F
:1007D400FFF7CAFE0346012B32D10120FFF7FCFECE
:1007E4001B4B1B68BB60BB687B607B68B3F1005F1D
:1007F40005D37B68174A934201D801230AE07B683A
:10080400B3F1006F05D37B68134A934201D80123E7
:1008140000E00023FB70FB78012B0BD1BB6843F095
:100824000103FB60FB1C0121184600F015FAFB686C
:10083400984707E0FB1C0121184600F00DFA01E07F
:10084400FFF7DDFE00BF1837BD4680BD5000002015
:1008540052000020000001200000040880B58AB086
:1008640000AF03460A46FB711346BB71002387F8A9
:10087400273000233B62FB79C3F1060387F8263057
:10088400002387F8253007F10C0300221A605A6010
:100894009A60DA601A6101233B61FB797B61022370
:1008A400FB61FB79052B02D9FB79FF2B42D1BA7985
:1008B40097F826309A4203D997F82630BB6101E0B5
:1008C400BB79BB61FB79FF2B02D10123FB6001E003
:1008D4000023FB6000F002FE03461A4697F8253019
:1008E400134387F8253007F1200207F10C03114662
:1008F400184600F0A5FF03461A4697F8253013431F
:1009040087F825303B6AB3F1FF3F07D197F82530CC
:10091400002B03D1032387F8273002E0022387F852
:10092400273000F0FDFD03461A4697F8253013439F
:1009340087F8253097F8273018462837BD4680BDFC
:1009440080B584B000AF1C4B1B789BB20133FB8194
:100954000023BB600023FB710023BB7102237B7166
:10096400FB89043B144A13441B68BB60FB89043BAA
:10097400B9681846FFF7F8FD0346012B16D101208C
:10098400FFF72AFE0C4B9B78FB710B4BDB78BB719A
:10099400BA79FB7911461846FFF760FF03467B716D
:1009A4007B1D0121184600F057F901E0FFF727FEEF
:1009B40000BF1037BD4680BD50000020B0B586B0E2
:1009C40000AFF8600B467A60FB720023FB750023CE
:1009D400BB7500237B7500F081FD0346FB7514E0B5
:1009E400BA7D7B68D118BB7DFA6813441B78DBB2EF
:1009F40000221C46154622462B46002000F01AFD14
:100A04000346FB75BB7D0133BB75BA7DFB7A9A4205
:100A140002D2FB7D002BE3D0FB7D002B01D101230F
:100A24007B7500F07DFD0346FB757B7D184618370A
:100A3400BD46B0BD80B586B000AF2E4B1B789BB2CF
:100A44000133FB8200233B610023FB600023FB7224
:100A54000023FB700023BB70FB8A043B254A13442C
:100A64001B683B61FB8A043B39691846FFF77CFD30
:100A74000346012B37D10120FFF7AEFD1E4B1B6847
:100A8400FB601C4B9B79FB72FB687B607B68B3F15A
:100A9400005F05D37B68194A934201D801230AE019
:100AA4007B68B3F1006F05D37B68154A934201D884
:100AB400012300E00023BB70BB78012B0DD111484A
:100AC400FB7AFA681946FFF779FF0346FB70FB1CB3
:100AD4000121184600F0C0F807E0BB1C01211846AC
:100AE40000F0BAF801E0FFF78AFD00BF1837BD46F1
:100AF40080BD00BF500000205200002000000120F3
:100B0400000004085700002080B58AB000AF0346F7
:100B1400FB71002387F82730002387F82630FB7900
:100B2400022B0CD0022B0DDC002B02D0012B03D0A6
:100B340008E0AA23FB7108E05523FB7105E0CC23F0
:100B4400FB7102E097F8263039E000F0F9FC034627
:100B54001A4697F82730134387F8273001237B611F
:100B64000223BB60FB79BB6107F10803184600F060
:100B7400D7FE03461A4697F82730134387F82730E1
:100B840097F82730002B08D100F006FD03461A46DB
:100B940097F82730134387F8273000F0EDFC03461D
:100BA4001A4697F82730134387F8273097F82730E9
:100BB400002B02D1012387F8263097F826301846F7
:100BC4002837BD4680BD000080B584B000AF1A4B05
:100BD4001B789BB20133FB810023BB600023FB71B4
:100BE400FB89043B144A13441B68BB60FB89043B28
:100BF400B9681846FFF7B8FC0346012B16D101204B
:100C0400FFF7EAFC0C4B9B78022B07D00A4B9B782E
:100C14001846FFF779FF0346FB7101E00023FB71DF
:100C2400FB1D0121184600F017F801E0FFF7E7FC6F
:100C340000BF1037BD4680BD5000002080B588B08D
:100C440000AF3B1D184600F0D9FE7B69DBB21846A5
:100C54002037BD4680BD000080B584B000AF786009
:100C640039600123FB733B689AB24FF0FF33796814
:100C7400044801F0BBFE0346FB7300BF1037BD46BA
:100C840080BD00BFB001002080B500AF064B074A0D
:100C94001A60054800F087FB0346002B01D000F0E2
:100CA400C7F800BF80BD00BF6001002000300240D3
:100CB40080B485B000AF78607B681B680B4A9342B0
:100CC4000DD10023FB600A4B1B6B094A43F480538C
:100CD4001363074B1B6B03F48053FB60FB6800BF7B
:100CE4001437BD465DF8047B704700BF00300240F6
:100CF4000038024080B483B000AF00237B60094B0E
:100D04001B6B084A43F001031363064B1B6B03F090
:100D140001037B607B6800BF0C37BD465DF8047B34
:100D2400704700BF0038024080B582B000AF012395
:100D3400FB7100F0E1F900F011F8FFF7DBFFFFF7BA
:100D4400A3FF00F0CDF800F0F5F8FFF7BFFB034672
:100D54001A46FB791343FB71F7E7000080B594B0A2
:100D640000AF07F1200330220021184602F090FA68
:100D740007F10C0300221A605A609A60DA601A6163
:100D84000023BB60284B1B6C274A43F08053136439
:100D9400254B1B6C03F08053BB60BB6800237B6056
:100DA400224B1B6823F44043204A43F4004313605E
:100DB4001E4B1B6803F440437B607B6802233B6249
:100DC4000123FB6210233B630223BB630023FB6309
:100DD40008233B6454237B640223BB640423FB6425
:100DE40007F12003184601F059F90346002B01D0FE
:100DF40000F01EF80F23FB6002233B6100237B619C
:100E04004FF48053BB610023FB6107F10C03022103
:100E1400184601F0BBFB0346002B01D000F008F894
:100E240000BF5037BD4680BD00380240007000400E
:100E340080B400AF72B600BFFEE7000080B483B098
:100E440000AF00237B60104B5B6C0F4A43F480437C
:100E540053640D4B5B6C03F480437B607B6800231D
:100E64003B60094B1B6C084A43F080531364064BE8
:100E74001B6C03F080533B603B6800BF0C37BD46DE
:100E84005DF8047B704700BF0038024080B400AFB7
:100E9400FEE780B400AFFEE780B400AFFEE780B4A5
:100EA40000AFFEE780B400AFFEE780B400AF00BF40
:100EB400BD465DF8047B704780B400AF00BFBD46FB
:100EC4005DF8047B704780B400AF00BFBD465DF899
:100ED400047B704780B500AF00F060F900BF80BDAF
:100EE40080B500AF114B124A1A60104B4FF4E13237
:100EF4005A600E4B00229A600C4B0022DA600B4BB6
:100F040000221A61094B0C225A61084B00229A6193
:100F1400064B0022DA61054801F018FD0346002B58
:100F240001D0FFF785FF00BF80BD00BF680100202E
:100F34000010014080B500AF114B124A1A60104BEB
:100F44004FF4E1325A600E4B00229A600C4B00229F
:100F5400DA600B4B00221A61094B0C225A61084BD0
:100F640000229A61064B0022DA61054801F0EEFC8A
:100F74000346002B01D0FFF75BFF00BF80BD00BF1D
:100F8400B00100200044004080B58CB000AF786010
:100F940007F11C0300221A605A609A60DA601A6131
:100FA4007B681B68324A93422DD10023BB61314BCD
:100FB4005B6C304A43F0100353642E4B5B6C03F0BC
:100FC4001003BB61BB6900237B612A4B1B6B294A5D
:100FD40043F001031363274B1B6B03F001037B6195
:100FE4007B694FF4C063FB6102233B6200237B6295
:100FF4000323BB620723FB6207F11C0319461E4847
:1010040000F0C8FE30E07B681B681C4A93422BD179
:1010140000233B61174B1B6C164A43F400331364E3
:10102400144B1B6C03F400333B613B690023FB60EE
:10103400104B1B6B0F4A43F0010313630D4B1B6BE7
:1010440003F00103FB60FB680C23FB6102233B629A
:1010540000237B620323BB620723FB6207F11C03AB
:101064001946054800F096FE00BF3037BD4680BDE6
:1010740000100140003802400000024000440040DB
:10108400DFF834D000F026F80C480D490D4A00234F
:1010940002E0D458C4500433C4188C42F9D30A4A29
:1010A4000A4C002301E013600432A242FBD302F095
:1010B400F7F8FFF739FE7047000001200000002018
:1010C400340000202C330008340000201C020020CF
:1010D400FEE7000080B400AF064BD3F88830054A21
:1010E40043F47003C2F8883000BFBD465DF8047B4A
:1010F400704700BF00ED00E080B500AF0E4B1B68E9
:101104000D4A43F4007313600B4B1B680A4A43F403
:1011140080631360084B1B68074A43F480731360B1
:10112400032000F00DF90F2000F008F8FFF786FE09
:101134000023184680BD00BF003C024080B582B049
:1011440000AF7860124B1A68124B1B7819464FF4A3
:101154007A73B3FBF1F3B2FBF3F3184600F017F91B
:101164000346002B01D001230EE07B680F2B0AD825
:10117400002279684FF0FF3000F0EDF8064A7B68F2
:101184001360002300E0012318460837BD4680BDE4
:1011940028000020300000202C00002080B400AF84
:1011A400064B1B781A46064B1B681344044A13600B
:1011B40000BFBD465DF8047B704700BF30000020CF
:1011C400F801002080B400AF034B1B681846BD46ED
:1011D4005DF8047B704700BFF801002080B485B03F
:1011E40000AF78607B6803F00703FB600C4BDB689F
:1011F400BB60BA684FF6FF031340BB60FB681A027A
:10120400BB68134343F0BF6343F40033BB60044A39
:10121400BB68D36000BF1437BD465DF8047B7047DC
:1012240000ED00E080B400AF044BDB681B0A03F060
:1012340007031846BD465DF8047B704700ED00E0E7
:1012440080B483B000AF03463960FB7197F907306F
:10125400002B0ADB3B68DAB20C4997F9073012011C
:10126400D2B20B4483F800230AE03B68DAB208499F
:10127400FB7903F00F03043B1201D2B20B441A763C
:1012840000BF0C37BD465DF8047B704700E100E009
:1012940000ED00E080B489B000AFF860B9607A6016
:1012A400FB6803F00703FB61FB69C3F10703042B2D
:1012B40028BF0423BB61FB690433062B02D9FB69F5
:1012C400033B00E000237B614FF0FF32BB6902FA6D
:1012D40003F3DA43BB681A407B699A404FF0FF314D
:1012E4007B6901FA03F3D9437B680B401343184627
:1012F4002437BD465DF8047B7047000080B582B09A
:1013040000AF78607B68013BB3F1807F01D3012398
:101314000FE00A4A7B68013B53600F214FF0FF3016
:10132400FFF78EFF054B00229A60044B07221A60D8
:10133400002318460837BD4680BD00BF10E000E01A
:1013440080B582B000AF78607868FFF747FF00BFD0
:101354000837BD4680BD80B586B000AF0346B9608E
:101364007A60FB7300237B61FFF75CFF78617A6826
:10137400B9687869FFF78EFF024697F90F30114676
:101384001846FFF75DFF00BF1837BD4680BD80B526
:1013940082B000AF78607868FFF7B0FF0346184664
:1013A4000837BD4680BD80B582B000AF78607B68E9
:1013B400002B01D101230EE07B685B79DBB2002BAB
:1013C40005D17B6800221A717868FFF771FC7B688D
:1013D40001225A71002318460837BD4680BD80B4E7
:1013E40087B000AFF860B9607A6000233B61FB68A6
:1013F40002225A7100237B610AE07B699B00BA6870
:101404001A44FB681B6812681A607B6901337B61AC
:101414007A697B689A42F0D3FB681B681B683B615E
:10142400FB6801225A713B6918461C37BD465DF8BA
:10143400047B704780B586B000AFF860B960C7E937
:1014440000230123FB75234B1B7E012B01D10223B7
:101454003BE0204B01221A764CF2503000F0B0F8F9
:101464000346FB75FB7D002B2BD1FB68002B05D1BC
:101474003B781946B86800F05BF916E0FB68012B6D
:1014840005D13B881946B86800F02EF90DE0FB68D9
:10149400022B05D13B681946B86800F003F904E053
:1014A400D7E90023B86800F0CBF84CF2503000F0D4
:1014B40087F80346FB75084B1B69074A23F00103B1
:1014C4001361044B00221A76FB7D18461837BD467B
:1014D40080BD00BFFC010020003C024080B483B00A
:1014E40000AF0023FB710B4B1B69002B0BDA094B7C
:1014F400094A5A60074B094A5A60064B1B69002B7C
:1015040001DA0123FB71FB7918460C37BD465DF8FF
:10151400047B7047003C024023016745AB89EFCD53
:1015240080B400AF054B1B69044A43F000431361C8
:1015340000231846BD465DF8047B7047003C02401A
:1015440080B400AF094B5B6903F00103002B07D0A3
:10155400064B074A9A60054B064A9A60002300E04E
:1015640001231846BD465DF8047B7047003C0240E9
:101574003B2A19087F6E5D4C80B400AF054B5B6954
:10158400044A43F00103536100231846BD465DF845
:10159400047B7047003C024080B500AF074B1B78CA
:1015A400DBB2064A43F00203DBB213704CF2503054
:1015B40000F006F80346184680BD00BF143C024004
:1015C40080B584B000AF78600023FB601A4B002222
:1015D400DA61FFF7F7FDF86010E07B68B3F1FF3FD5
:1015E4000CD07B68002B07D0FFF7ECFD0246FB68AC
:1015F400D31A7A689A4201D2032319E00F4BDB68AD
:1016040003F48033002BE8D10C4BDB6803F00103B7
:10161400002B02D0094B0122DA60084BDB6803F48B
:10162400F973002B03D000F0A5F8012300E0002398
:1016340018461037BD4680BDFC010020003C024026
:1016440080B485B000AFF860C7E90023144B1B6970
:10165400134A23F440731361114B1B69104A43F47A
:10166400407313610E4B1B690D4A43F00103136170
:10167400FB683A681A60BFF36F8F00BFD7E90001B7
:101684004FF000024FF000030A000023F968043110
:1016940013460B6000BF1437BD465DF8047B7047EA
:1016A400003C024080B483B000AF786039600D4BD9
:1016B4001B690C4A23F4407313610A4B1B69094AE2
:1016C40043F400731361074B1B69064A43F001039B
:1016D40013617B683A681A6000BF0C37BD465DF839
:1016E400047B7047003C024080B483B000AF786054
:1016F4000B467B800D4B1B690C4A23F4407313612A
:101704000A4B1B69094A43F480731361074B1B6935
:10171400064A43F0010313617B687A881A8000BF8C
:101724000C37BD465DF8047B704700BF003C0240A7
:1017340080B483B000AF78600B46FB700C4B1B6920
:101744000B4A23F440731361094B094A1B69136163
:10175400074B1B69064A43F0010313617B68FA785F
:101764001A7000BF0C37BD465DF8047B704700BF9C
:10177400003C024080B400AF2F4BDB6803F0100341
:10178400002B08D02D4BDB6943F010032B4AD361A7
:10179400294B1022DA60284BDB6803F02003002B6E
:1017A40008D0264BDB6943F00803244AD361224B5B
:1017B4002022DA60204BDB6803F04003002B08D0C2
:1017C4001E4BDB6943F004031C4AD3611A4B4022CD
:1017D400DA60194BDB6803F08003002B08D0174B49
:1017E400DB6943F00203154AD361134B8022DA60AC
:1017F400114BDB6803F48073002B09D00F4BDB69BA
:1018040043F001030D4AD3610B4B4FF48072DA604D
:10181400094BDB6803F00203002B08D0074BDB699C
:1018240043F02003054AD361034B0222DA6000BF70
:10183400BD465DF8047B7047003C0240FC0100207B
:1018440080B584B000AF786039600123FB73002356
:10185400BB60314B1B7E012B01D1022358E02E4B80
:1018640001221A764CF25030FFF7AAFE0346FB73AE
:10187400FB7B002B48D13B684FF0FF321A607B683A
:101884001B68012B15D17B681B69DAB27B685B6826
:101894001946104600F0D6F84CF25030FFF790FE8F
:1018A4000346FB731D4B1B691C4A23F0040313619D
:1018B40028E07B689B68BB601CE07B681B69DBB22B
:1018C4001946B86800F0E2F84CF25030FFF778FEA1
:1018D4000346FB73114B1B69104A23F0FA0313618F
:1018E400FB7B002B03D03B68BA681A600AE0BB6834
:1018F4000133BB607B68DA687B689B681344BA6811
:101904009A42DAD300F000FA034B00221A76FB7BEA
:1019140018461037BD4680BDFC010020003C024043
:1019240080B584B000AF78600123FB73324B1B7E1B
:10193400012B01D102235BE02F4B01221A767B6835
:101944001B6803F00103002B18D07B685B68012B34
:101954000AD17B689A687B68DB681946104600F0F8
:10196400DDF80346FB7309E07B689A687B68DB68F3
:101974001946104600F0F4F80346FB737B681B68B5
:1019840003F00203002B07D07B681B69DBB2184607
:1019940000F006F90346FB737B681B6803F004033D
:1019A400002B13D07B681B7E03F02003D8B27B6826
:1019B4001B7E03F04003D9B27B681B7E23F07F03B8
:1019C400DBB21A4600F006F90346FB737B681B681A
:1019D40003F00803002B07D07B685B69DBB2184671
:1019E40000F028F90346FB73034B00221A76FB7BB5
:1019F40018461037BD4680BDFC01002080B582B07A
:101A040000AF78607B680F221A6000F041F903464A
:101A14001A467B689A6000F047F903461A467B68C9
:101A24001A6100F025F903461A467B681A7600F01D
:101A34005BF903461A467B685A6100BF0837BD4606
:101A440080BD000080B483B000AF03463960FB71F1
:101A54000D4B1B690C4A23F4407313610A4B1B6939
:101A6400094A43F004031361074B1A69FB791B020B
:101A74001343054A43F48033136100BF0C37BD465A
:101A84005DF8047B704700BF003C024080B485B021
:101A940000AF78600B46FB700023FB60FB78002BE3
:101AA40002D10023FB6010E0FB78012B03D14FF43B
:101AB4008073FB6009E0FB78022B03D14FF40073C1
:101AC400FB6002E04FF44073FB60134B1B69124A46
:101AD40023F440731361104B1A690F49FB681343D5
:101AE4000B610D4B1B690C4A23F0F80313610A4B7D
:101AF4001A697B68DB001343074A43F0020313614E
:101B0400054B1B69044A43F48033136100BF143747
:101B1400BD465DF8047B7047003C024080B584B04C
:101B240000AF786039600023FB734CF25030FFF74C
:101B340047FD0346FB73FB7B002B0AD1074B1B8835
:101B44009AB27B689BB2DB439BB2044913409BB2BD
:101B54000B80FB7B18461037BD4680BD163C024007
:101B640080B584B000AF786039600023FB734CF219
:101B74005030FFF725FD0346FB73FB7B002B08D198
:101B8400064B1B889AB27B689BB2044913439BB2F1
:101B94000B80FB7B18461037BD4680BD163C0240C7
:101BA40080B584B000AF0346FB710023FB734CF295
:101BB4005030FFF705FD0346FB73FB7B002B02D17E
:101BC400034AFB791370FB7B18461037BD4680BD72
:101BD400153C024080B584B000AF0346FB710B4650
:101BE400BB7113467B71FF23FB730023BB734CF261
:101BF4005030FFF7E5FC0346BB73BB7B002B11D1D0
:101C04000B4B1B78DBB203F01F03FB73BA79FB7B2E
:101C14001343DAB27B791343DAB20549FB791343F0
:101C2400DBB20B70BB7B18461037BD4680BD00BFCE
:101C3400143C024080B483B000AF0346FB710B4BED
:101C44001B78DBB2094A23F00C03DBB21370074B99
:101C54001B78DAB20549FB791343DBB20B7000231E
:101C640018460C37BD465DF8047B7047143C0240AF
:101C740080B400AF054B5B69DBB223F01F03DBB21A
:101C84001846BD465DF8047B704700BF003C024027
:101C940080B400AF034B1B889BB21846BD465DF869
:101CA400047B7047163C024080B483B000AFAA2383
:101CB400FB710C4B1B78DBB2CC2B02D1CC23FB7118
:101CC40009E0084B1B78DBB2AA2B02D1AA23FB71D3
:101CD40001E05523FB71FB7918460C37BD465DF8CE
:101CE400047B7047153C024080B400AF054B1B7861
:101CF400DBB203F00C03DBB21846BD465DF8047B8F
:101D0400704700BF143C024080B400AF204B1B68F6
:101D140003F40073002B17D01D4B1B681C4A23F4DB
:101D2400007313601A4B1B68194A43F40063136071
:101D3400174B1B68164A23F400631360144B1B688B
:101D4400134A43F400731360114B1B6803F480635C
:101D5400002B17D00E4B1B680D4A23F480631360CD
:101D64000B4B1B680A4A43F480531360084B1B68EF
:101D7400074A23F480531360054B1B68044A43F459
:101D84008063136000BFBD465DF8047B704700BFED
:101D9400003C024080B489B000AF78603960002311
:101DA4007B6100233B610023BB610023FB6159E19C
:101DB4000122FB6902FA03F37B613B681B687A69C1
:101DC40013403B613A697B699A4240F048813B6821
:101DD4005B6803F00303012B05D03B685B6803F0E9
:101DE4000303022B30D17B689B68BB61FB695B00FA
:101DF400032202FA03F3DB43BA691340BB613B6875
:101E0400DA68FB695B0002FA03F3BA691343BB6146
:101E14007B68BA699A607B685B68BB610122FB6975
:101E240002FA03F3DB43BA691340BB613B685B68A6
:101E34001B0903F00102FB6902FA03F3BA691343B5
:101E4400BB617B68BA695A603B685B6803F0030353
:101E5400032B17D07B68DB68BB61FB695B00032243
:101E640002FA03F3DB43BA691340BB613B689A6827
:101E7400FB695B0002FA03F3BA691343BB617B6835
:101E8400BA69DA603B685B6803F00303022B23D171
:101E9400FB69DA087B68083253F82230BB61FB69BE
:101EA40003F007039B000F2202FA03F3DB43BA6932
:101EB4001340BB613B681A69FB6903F007039B008D
:101EC40002FA03F3BA691343BB61FB69DA087B685E
:101ED4000832B96943F822107B681B68BB61FB694F
:101EE4005B00032202FA03F3DB43BA691340BB61CC
:101EF4003B685B6803F00302FB695B0002FA03F3CF
:101F0400BA691343BB617B68BA691A603B685B6852
:101F140003F44033002B00F0A2800023FB60574BF6
:101F24005B6C564A43F480435364544B5B6C03F438
:101F34008043FB60FB68524AFB699B08023352F8FA
:101F44002330BB61FB6903F003039B000F2202FAF9
:101F540003F3DB43BA691340BB617B68494A93428C
:101F640019D07B68484A934213D07B68474A93420E
:101F74000DD07B68464A934207D07B68454A93421A
:101F840001D1042308E0072306E0032304E002232D
:101F940002E0012300E00023FA6902F00302920048
:101FA4009340BA691343BB613549FB699B0802330B
:101FB400BA6941F82320384B9B68BB613B69DB431A
:101FC400BA691340BB613B685B6803F48013002B60
:101FD40003D0BA693B691343BB612F4ABB69936061
:101FE4002D4BDB68BB613B69DB43BA691340BB61C2
:101FF4003B685B6803F40013002B03D0BA693B69A8
:102004001343BB61244ABB69D360234B5B68BB6148
:102014003B69DB43BA691340BB613B685B6803F40B
:102024000033002B03D0BA693B691343BB611A4ADE
:10203400BB695360184B1B68BB613B69DB43BA69DE
:102044001340BB613B685B6803F48033002B03D00F
:10205400BA693B691343BB610F4ABB691360FB69EF
:102064000133FB61FB690F2B7FF6A2AE00BF00BFFB
:102074002437BD465DF8047B704700BF003802403A
:102084000038014000000240000402400008024001
:10209400000C024000100240003C014080B586B0B4
:1020A40000AF78607B68002B01D1012367E27B6875
:1020B4001B6803F00103002B75D0884B9B6803F069
:1020C4000C03042B0CD0854B9B6803F00C03082BEA
:1020D40012D1824B5B6803F48003B3F5800F0BD1FC
:1020E4007E4B1B6803F40033002B5BD07B685B687A
:1020F400002B57D1012342E27B685B68B3F5803F34
:1021040006D1764B1B68754A43F4803313601DE097
:102114007B685B68B3F5A02F0CD1704B1B686F4ACA
:1021240043F4802313606D4B1B686C4A43F4803383
:1021340013600BE0694B1B68684A23F48033136017
:10214400664B1B68654A23F4802313607B685B68D5
:10215400002B13D0FFF736F8386108E0FFF732F8A8
:1021640002463B69D31A642B01D9032307E25B4B74
:102174001B6803F40033002BF0D014E0FFF722F8BF
:10218400386108E0FFF71EF802463B69D31A642B56
:1021940001D90323F3E1514B1B6803F40033002BF3
:1021A400F0D100E000BF7B681B6803F00203002B42
:1021B40063D04A4B9B6803F00C03002B0BD0474BB6
:1021C4009B6803F00C03082B1CD1444B5B6803F49D
:1021D4008003002B16D1414B1B6803F00203002B34
:1021E40005D07B68DB68012B01D00123C7E13B4BA1
:1021F4001B6823F0F8027B681B69DB003749134333
:102204000B603AE07B68DB68002B20D0344B012262
:102214001A60FEF7D7FF386108E0FEF7D3FF0246E5
:102224003B69D31A022B01D90323A8E12B4B1B686A
:1022340003F00203002BF0D0284B1B6823F0F802B4
:102244007B681B69DB00254913430B6015E0244BB5
:1022540000221A60FEF7B6FF386108E0FEF7B2FF0D
:1022640002463B69D31A022B01D9032387E11B4B96
:102274001B6803F00203002BF0D17B681B6803F09A
:102284000803002B36D07B685B69002B16D0154BF6
:1022940001221A60FEF796FF386108E0FEF792FF0C
:1022A40002463B69D31A022B01D9032367E10B4B86
:1022B4005B6F03F00203002BF0D01BE0094B0022FC
:1022C4001A60FEF77FFF38610EE0FEF77BFF0246DF
:1022D4003B69D31A022B07D9032350E1003802408B
:1022E40000004742800E4742884B5B6F03F00203B5
:1022F400002BEAD17B681B6803F00403002B00F079
:1023040097800023FB75814B1B6C03F08053002BDB
:102314000FD10023BB607D4B1B6C7C4A43F0805380
:1023240013647A4B1B6C03F08053BB60BB680123BE
:10233400FB75774B1B6803F48073002B18D1744B27
:102344001B68734A43F480731360FEF73BFF3861E4
:1023540008E0FEF737FF02463B69D31A022B01D986
:1023640003230CE16A4B1B6803F48073002BF0D049
:102374007B689B68012B06D1644B1B6F634A43F057
:10238400010313671CE07B689B68052B0CD15F4B32
:102394001B6F5E4A43F0040313675C4B1B6F5B4A7D
:1023A40043F0010313670BE0584B1B6F574A23F0AC
:1023B40001031367554B1B6F544A23F0040313673F
:1023C4007B689B68002B15D0FEF7FCFE38610AE0A1
:1023D400FEF7F8FE02463B69D31A41F28832934273
:1023E40001D90323CBE0494B1B6F03F00203002BFD
:1023F400EED014E0FEF7E6FE38610AE0FEF7E2FEF6
:1024040002463B69D31A41F28832934201D903232D
:10241400B5E03E4B1B6F03F00203002BEED1FB7DB6
:10242400012B05D1394B1B6C384A23F080531364BC
:102434007B689B69002B00F0A180344B9B6803F000
:102444000C03082B5CD07B689B69022B41D1314B78
:1024540000221A60FEF7B6FE386108E0FEF7B2FE0D
:1024640002463B69D31A022B01D9032387E0274B89
:102474001B6803F00073002BF0D17B68DA697B687A
:102484001B6A1A437B685B6A9B011A437B689B6ADD
:102494005B08013B1B041A437B68DB6A1B061B4970
:1024A40013434B601B4B01221A60FEF78BFE38610D
:1024B40008E0FEF787FE02463B69D31A022B01D9D6
:1024C40003235CE0114B1B6803F00073002BF0D076
:1024D40054E0104B00221A60FEF774FE386108E0E5
:1024E400FEF770FE02463B69D31A022B01D903237F
:1024F40045E0064B1B6803F00073002BF0D13DE070
:102504007B689B69012B07D1012338E00038024026
:1025140000700040600047421B4B5B68FB607B68B7
:102524009B69012B28D0FB6803F480027B68DB697C
:102534009A4221D1FB6803F03F027B681B6A9A42EE
:102544001AD1FA6847F6C07313407A68526A920146
:10255400934211D1FB6803F440327B689B6A5B08A9
:10256400013B1B049A4207D1FB6803F070627B684D
:10257400DB6A1B069A4201D0012300E000231846BF
:102584001837BD4680BD00BF0038024080B584B016
:1025940000AF786039607B68002B01D10123CCE067
:1025A400684B1B6803F007033A689A420CD9654BE1
:1025B4003A68D2B21A70634B1B6803F007033A6897
:1025C4009A4201D00123B8E07B681B6803F0020340
:1025D400002B20D07B681B6803F00403002B05D07C
:1025E400594B9B68584A43F4E05393607B681B68DB
:1025F40003F00803002B05D0534B9B68524A43F465
:1026040060439360504B9B6823F0F0027B689B68A7
:102614004D4913438B607B681B6803F00103002B57
:1026240044D07B685B68012B07D1474B1B6803F4DC
:102634000033002B19D101237FE07B685B68022BF8
:1026440003D07B685B68032B07D13F4B1B6803F007
:102654000073002B09D101236FE03B4B1B6803F08F
:102664000203002B01D1012367E0374B9B6823F061
:1026740003027B685B68344913438B60FEF7A2FD59
:10268400F8600AE0FEF79EFD0246FB68D31A41F2A9
:102694008832934201D903234FE02B4B9B6803F00C
:1026A4000C027B685B689B009A42EBD1254B1B684C
:1026B40003F007033A689A420CD2224B3A68D2B22A
:1026C4001A70204B1B6803F007033A689A4201D042
:1026D400012332E07B681B6803F00403002B08D05D
:1026E400194B9B6823F4E0527B68DB68164913435B
:1026F4008B607B681B6803F00803002B09D0124B26
:102704009B6823F460427B681B69DB000E4913431A
:102714008B6000F021F802460B4B9B681B0903F009
:102724000F030A49CB5C22FA03F3094A1360094BED
:102734001B681846FEF702FD002318461037BD46F5
:1027440080BD00BF003C0240003802400433000852
:10275400280000202C0000202DE9B04F90B000AFDD
:1027640000237B630023FB6300233B630023BB63E1
:10277400594B9B6803F00C03082B0DD0082B00F277
:10278400A180002B02D0042B03D09BE0534BBB63EE
:102794009BE0534BBB6398E04F4B5B6803F03F03F4
:1027A4007B634D4B5B6803F48003002B28D04A4BBA
:1027B4005B689B0900223B627A623B6AC3F30800B0
:1027C4000021474B03FB01F2002300FB03F31344F6
:1027D400434AA0FB0212FA620A46BA62FA6A134436
:1027E400FB627B6B0022BB61FA61D7E90623D7E960
:1027F4000A01FDF7EDFC02460B461346FB6353E06A
:10280400354B5B689B0900223B617A613B69C3F3EA
:10281400080A4FF0000B52465B464FF000004FF0A1
:102824000001590141EAD261500102460B46B2EB64
:102834000A0863EB0B094FF000024FF000034FEA64
:10284400891343EA98634FEA8812B2EB080463EBF6
:1028540009054FF000024FF00003EB0043EA547304
:10286400E20014461D4614EB0A033B6045EB0B03E0
:102874007B604FF000024FF00003D7E90045294682
:102884008B02214643EA915321468A021046194697
:102894007B6B0022BB60FA60D7E90223FDF798FC4A
:1028A40002460B461346FB630B4B5B681B0C03F0A1
:1028B400030301335B003B63FA6B3B6BB2FBF3F343
:1028C400BB6302E0054BBB6300BFBB6B18464037DC
:1028D400BD46BDE8B08F00BF003802400024F400BC
:1028E40040787D0180B400AF034B1B681846BD4699
:1028F4005DF8047B704700BF2800002080B500AF5E
:10290400FFF7F0FF0246054B9B689B0A03F00703A1
:102914000349CB5C22FA03F3184680BD0038024019
:102924001433000880B500AFFFF7DCFF0246054B07
:102934009B685B0B03F007030349CB5C22FA03F3A8
:10294400184680BD003802401433000880B582B0B8
:1029540000AF78607B68002B01D1012342E07B68E3
:1029640093F84130DBB2002B06D17B68002283F858
:1029740040207868FEF708FB7B68242283F8412016
:102984007B681B68DA687B681B6822F40052DA6093
:10299400786800F009FA7B681B681A697B681B6811
:1029A40022F490421A617B681B685A697B681B6831
:1029B40022F02A025A617B681B68DA687B681B680C
:1029C40042F40052DA607B6800225A647B68202259
:1029D40083F841207B68202283F842207B68002210
:1029E4005A63002318460837BD4680BD80B58AB0B7
:1029F40002AFF860B9603B601346FB8000237B6143
:102A0400FB6893F84130DBB2202B75D1BB68002BF7
:102A140002D0FB88002B01D101236EE0FB68002269
:102A24005A64FB68212283F84120FEF7CBFB7861CE
:102A3400FB68FA889A84FB68FA88DA84FB689B68E6
:102A4400B3F5805F08D1FB681B69002B04D1002318
:102A5400FB61BB68BB6103E0BB68FB610023BB6136
:102A64002EE03B6800937B6900228021F86800F027
:102A7400DFF80346002B05D0FB68202283F84120B1
:102A840003233AE0FB69002B0BD1BB691B881A4670
:102A9400FB681B68C2F308025A60BB690233BB615E
:102AA40007E0FB691A78FB681B685A60FB6901330D
:102AB400FB61FB68DB8C9BB2013B9AB2FB68DA8456
:102AC400FB68DB8C9BB2002BCBD13B6800937B690A
:102AD40000224021F86800F0ABF80346002B05D033
:102AE400FB68202283F84120032306E0FB682022B0
:102AF40083F84120002300E0022318462037BD4616
:102B040080BD80B58AB002AFF860B9603B601346FF
:102B1400FB8000237B61FB6893F84230DBB2202BFF
:102B240040F08180BB68002B02D0FB88002B01D1D0
:102B3400012379E0FB6800225A64FB68222283F8AF
:102B44004220FB6800221A63FEF73CFB7861FB68B5
:102B5400FA889A85FB68FA88DA85FB689B68B3F57E
:102B6400805F08D1FB681B69002B04D10023FB6143
:102B7400BB68BB6103E0BB68FB610023BB6147E04A
:102B84003B6800937B6900222021F86800F050F82C
:102B94000346002B05D0FB68202283F84220032340
:102BA40042E0FB69002B0CD1FB681B685B689BB29D
:102BB400C3F308039AB2BB691A80BB690233BB61D1
:102BC4001FE0FB689B68B3F5805F07D0FB689B68D8
:102BD400002B0AD1FB681B69002B06D1FB681B681C
:102BE4005B68DAB2FB691A7008E0FB681B685B6813
:102BF400DBB203F07F03DAB2FB691A70FB690133BD
:102C0400FB61FB68DB8D9BB2013B9AB2FB68DA8502
:102C1400FB68DB8D9BB2002BB2D1FB68202283F8CA
:102C24004220002300E0022318462037BD4680BD21
:102C340080B586B000AFF860B9603B601346FB71A5
:102C44003BE03B6AB3F1FF3F37D0FEF7BBFA0246E5
:102C54003B68D31A3A6A9A4202D33B6A002B01D1E9
:102C640003233AE0FB681B68DB6803F00403002BD2
:102C740023D0BB68802B20D0BB68402B1DD0FB68C1
:102C84001B681B6803F00803082B16D100237B6123
:102C9400FB681B681B687B61FB681B685B687B6166
:102CA4007B69F86800F01DF8FB6808225A64FB6829
:102CB400002283F8402001230FE0FB681B681A6898
:102CC400BB681340BA689A420CBF01230023DBB2ED
:102CD4001A46FB799A42B4D0002318461837BD46E9
:102CE40080BD80B495B000AF78607B681B680C33FE
:102CF4007B637B6B53E8003F3B633B6B23F4907334
:102D0400FB647B681B680C33FA6C3A64FB63F96BF5
:102D14003A6C41E80023BB63BB6B002BE5D17B68B5
:102D24001B6814333B623B6A53E8003FFB61FB6959
:102D340023F00103BB647B681B681433BA6CFA622A
:102D4400BB62B96AFA6A41E800237B627B6A002BA2
:102D5400E5D17B681B6B012B19D17B681B680C3395
:102D6400FB60FB6853E8003FBB60BB6823F01003C3
:102D74007B647B681B680C337A6CBA617B6179690C
:102D8400BA6941E800233B613B69002BE5D17B68CC
:102D9400202283F842207B6800221A6300BF543744
:102DA400BD465DF8047B70472DE9B04FC0B000AF5D
:102DB400C7F8F400D7F8F4301B681B6923F44050BB
:102DC400D7F8F430D968D7F8F4301A6840EA010328
:102DD4001361D7F8F4309A68D7F8F4301B691A43B2
:102DE400D7F8F4305B691A43D7F8F430DB6913433E
:102DF400C7F8F830D7F8F4301B68DB6823F41641C1
:102E040021F00C01D7F8F4301A68D7F8F8300B43E6
:102E1400D360D7F8F4301B685B6923F44070D7F8AB
:102E2400F4309969D7F8F4301A6840EA0103536121
:102E3400D7F8F4301A688F4B9A4205D0D7F8F4309B
:102E44001A688D4B9A4204D1FFF76CFDC7F8FC0059
:102E540003E0FFF753FDC7F8FC00D7F8F430DB6953
:102E6400B3F5004F40F00C81D7F8FC300022C7F8CE
:102E7400E830C7F8EC20D7E93A4522462B469118AA
:102E8400B9655B41FB65D7E91623214612EB0108BE
:102E9400294643EB01094FF000024FF000034FEACB
:102EA400C90343EA58734FEAC80290469946234639
:102EB40018EB0303C7F8E0302B4649EB0303C7F8CC
:102EC400E430D7F8F4305B680022C7F8D830C7F88C
:102ED400DC20D7E936120B46DB183B65134642EB80
:102EE40003037B65D7E91423D7E93801FDF770F9AB
:102EF40002460B46614BA3FB02235B091C01D7F876
:102F0400FC300022C7F8D030C7F8D420D7E9348980
:102F140042464B469118B9645B41FB64D7E91223DE
:102F2400414612EB010A494643EB010B4FF0000204
:102F34004FF000034FEACB0343EA5A734FEACA0245
:102F440092469B4643461AEB0303C7F8C8304B46E8
:102F54004BEB0303C7F8CC30D7F8F4305B6800229E
:102F6400C7F8C030C7F8C420D7E930120B46DB18C5
:102F74003B64134642EB03037B64D7E91023D7E990
:102F84003201FDF725F902460B4611463B4BA3FBE4
:102F940001235B09642202FB03F3CB1ADB0003F178
:102FA4003202364BA3FB02235B095B0003F4F87384
:102FB4001C44D7F8FC300022C7F8B830C7F8BC204E
:102FC400D7E92E8942464B469118B9635B41FB63AE
:102FD400D7E90E2341465118396349464B417B6377
:102FE4004FF000024FF00003D7E90CAB5946CB0079
:102FF400514643EA51735146CA00104619460346E6
:1030040042469B18C7F8B0304B460A4642EB0303CE
:10301400C7F8B430D7F8F4305B680022C7F8A8309A
:10302400C7F8AC20D7E92A120B46DB18BB6213465B
:1030340042EB0303FB62D7E90A23D7E92C01FDF72E
:10304400C7F802460B460D4BA3FB02135B09642130
:1030540001FB03F3D31ADB003233084AA2FB032338
:103064005B0903F00702D7F8F4301B6822449A6026
:1030740006E100BF00100140001401401F85EB5120
:10308400D7F8FC300022C7F8A030C7F8A420D7E94D
:10309400288942464B46911839625B417B62D7E9E5
:1030A400082341465418494643EB01054FF00002FA
:1030B4004FF00003EB0043EA5473E20014461D464C
:1030C4004346E318C7F898304B4645EB0303C7F86B
:1030D4009C30D7F8F4305B680022C7F89030C7F80A
:1030E40094204FF000024FF00003D7E9244529460D
:1030F4008B00214643EA917321468A00D7E92601D1
:10310400FDF766F802460B46604BA3FB02235B09FE
:103114001C01D7F8FC300022C7F88830C7F88C208F
:10312400D7E9228942464B469118B9615B41FB615C
:10313400D7E9062341465118396149464B417B6121
:103144004FF000024FF00003D7E904AB5946CB001F
:10315400514643EA51735146CA0010461946034684
:1031640042469B18C7F880304B460A4642EB03039D
:10317400C7F88430D7F8F4305B680022BB67FA677D
:103184004FF000024FF00003D7E91E8949468B0037
:10319400414643EA917341468A00D7E92001FDF78D
:1031A40017F802460B461146384BA3FB01235B0973
:1031B400642202FB03F3CB1A1B013233334AA2FB12
:1031C40003235B0903F0F0031C44D7F8FC3000220E
:1031D4003B677A67D7E91C8942464B469118B96028
:1031E4005B41FB60D7E902234146511839604946E7
:1031F4004B417B604FF000024FF00003D7E900AB76
:103204005946CB00514643EA51735146CA00104611
:103214001946034642469B18BB664B460A4642EB98
:103224000303FB66D7F8F4305B6800223B667A66DA
:103234004FF000024FF00003D7E9188949468B008C
:10324400414643EA917341468A00D7E91A01FCF7E3
:10325400BFFF02460B460D4BA3FB02135B0964211F
:1032640001FB03F3D31A1B013233084AA2FB0323E5
:103274005B0903F00F02D7F8F4301B6822449A600C
:1032840000BF07F58077BD46BDE8B08F1F85EB51C1
:1032940002440346934200D1704703F8011BF9E747
:1032A40070B50D4D0D4C641BA4100026A64209D127
:1032B4000B4D0C4C00F018F8641BA4100026A64219
:1032C40005D170BD55F8043B98470136EEE755F833
:1032D400043B98470136F2E72433000824330008FE
:1032E4002433000828330008F8B500BFF8BC08BC34
:1032F4009E467047F8B500BFF8BC08BC9E467047B0
:103304000000000000000000010203040607080991
:083314000000000001020304A7
:08331C00E8CEFF7F0100000074
:04332400B9010008E3
:043328009501000803
:10332C00210600087D060008D506000841070008A4
:10333C00A107000845090008390A0008CD0B000850
:10334C0010111213141516170024F40010000000AD
:04335C00010000006C
:04000005080010855A
:00000001FF
